{
	"data": {
		"bytecode": {
			"linkReferences": {},
			"object": "608060405261012c60005534801561001657600080fd5b506101ee806100266000396000f3fe608060405234801561001057600080fd5b506004361061004c5760003560e01c80633075813214610051578063cbe5356c1461006f578063e911018b1461008d578063fe68eeca146100ab575b600080fd5b6100596100c9565b604051610066919061013a565b60405180910390f35b6100776100cf565b604051610084919061013a565b60405180910390f35b6100956100f3565b6040516100a2919061013a565b60405180910390f35b6100b36100fc565b6040516100c0919061013a565b60405180910390f35b60005481565b60006113886000808282546100e49190610184565b92505081905550600054905090565b60008054905090565b600061010661010b565b905090565b6000603260005461011c9190610184565b905090565b6000819050919050565b61013481610121565b82525050565b600060208201905061014f600083018461012b565b92915050565b7f4e487b7100000000000000000000000000000000000000000000000000000000600052601160045260246000fd5b600061018f82610121565b915061019a83610121565b92508282019050808211156101b2576101b1610155565b5b9291505056fea264697066735822122016095a53923d4319b213fe255dfc12eb2a8e34e61b0d148f8d8e44dad17b013364736f6c63430008120033",
			"opcodes": "PUSH1 0x80 PUSH1 0x40 MSTORE PUSH2 0x12C PUSH1 0x0 SSTORE CALLVALUE DUP1 ISZERO PUSH2 0x16 JUMPI PUSH1 0x0 DUP1 REVERT JUMPDEST POP PUSH2 0x1EE DUP1 PUSH2 0x26 PUSH1 0x0 CODECOPY PUSH1 0x0 RETURN INVALID PUSH1 0x80 PUSH1 0x40 MSTORE CALLVALUE DUP1 ISZERO PUSH2 0x10 JUMPI PUSH1 0x0 DUP1 REVERT JUMPDEST POP PUSH1 0x4 CALLDATASIZE LT PUSH2 0x4C JUMPI PUSH1 0x0 CALLDATALOAD PUSH1 0xE0 SHR DUP1 PUSH4 0x30758132 EQ PUSH2 0x51 JUMPI DUP1 PUSH4 0xCBE5356C EQ PUSH2 0x6F JUMPI DUP1 PUSH4 0xE911018B EQ PUSH2 0x8D JUMPI DUP1 PUSH4 0xFE68EECA EQ PUSH2 0xAB JUMPI JUMPDEST PUSH1 0x0 DUP1 REVERT JUMPDEST PUSH2 0x59 PUSH2 0xC9 JUMP JUMPDEST PUSH1 0x40 MLOAD PUSH2 0x66 SWAP2 SWAP1 PUSH2 0x13A JUMP JUMPDEST PUSH1 0x40 MLOAD DUP1 SWAP2 SUB SWAP1 RETURN JUMPDEST PUSH2 0x77 PUSH2 0xCF JUMP JUMPDEST PUSH1 0x40 MLOAD PUSH2 0x84 SWAP2 SWAP1 PUSH2 0x13A JUMP JUMPDEST PUSH1 0x40 MLOAD DUP1 SWAP2 SUB SWAP1 RETURN JUMPDEST PUSH2 0x95 PUSH2 0xF3 JUMP JUMPDEST PUSH1 0x40 MLOAD PUSH2 0xA2 SWAP2 SWAP1 PUSH2 0x13A JUMP JUMPDEST PUSH1 0x40 MLOAD DUP1 SWAP2 SUB SWAP1 RETURN JUMPDEST PUSH2 0xB3 PUSH2 0xFC JUMP JUMPDEST PUSH1 0x40 MLOAD PUSH2 0xC0 SWAP2 SWAP1 PUSH2 0x13A JUMP JUMPDEST PUSH1 0x40 MLOAD DUP1 SWAP2 SUB SWAP1 RETURN JUMPDEST PUSH1 0x0 SLOAD DUP2 JUMP JUMPDEST PUSH1 0x0 PUSH2 0x1388 PUSH1 0x0 DUP1 DUP3 DUP3 SLOAD PUSH2 0xE4 SWAP2 SWAP1 PUSH2 0x184 JUMP JUMPDEST SWAP3 POP POP DUP2 SWAP1 SSTORE POP PUSH1 0x0 SLOAD SWAP1 POP SWAP1 JUMP JUMPDEST PUSH1 0x0 DUP1 SLOAD SWAP1 POP SWAP1 JUMP JUMPDEST PUSH1 0x0 PUSH2 0x106 PUSH2 0x10B JUMP JUMPDEST SWAP1 POP SWAP1 JUMP JUMPDEST PUSH1 0x0 PUSH1 0x32 PUSH1 0x0 SLOAD PUSH2 0x11C SWAP2 SWAP1 PUSH2 0x184 JUMP JUMPDEST SWAP1 POP SWAP1 JUMP JUMPDEST PUSH1 0x0 DUP2 SWAP1 POP SWAP2 SWAP1 POP JUMP JUMPDEST PUSH2 0x134 DUP2 PUSH2 0x121 JUMP JUMPDEST DUP3 MSTORE POP POP JUMP JUMPDEST PUSH1 0x0 PUSH1 0x20 DUP3 ADD SWAP1 POP PUSH2 0x14F PUSH1 0x0 DUP4 ADD DUP5 PUSH2 0x12B JUMP JUMPDEST SWAP3 SWAP2 POP POP JUMP JUMPDEST PUSH32 0x4E487B7100000000000000000000000000000000000000000000000000000000 PUSH1 0x0 MSTORE PUSH1 0x11 PUSH1 0x4 MSTORE PUSH1 0x24 PUSH1 0x0 REVERT JUMPDEST PUSH1 0x0 PUSH2 0x18F DUP3 PUSH2 0x121 JUMP JUMPDEST SWAP2 POP PUSH2 0x19A DUP4 PUSH2 0x121 JUMP JUMPDEST SWAP3 POP DUP3 DUP3 ADD SWAP1 POP DUP1 DUP3 GT ISZERO PUSH2 0x1B2 JUMPI PUSH2 0x1B1 PUSH2 0x155 JUMP JUMPDEST JUMPDEST SWAP3 SWAP2 POP POP JUMP INVALID LOG2 PUSH5 0x6970667358 0x22 SLT KECCAK256 AND MULMOD GAS MSTORE8 SWAP3 RETURNDATASIZE NUMBER NOT 0xB2 SGT INVALID 0x25 0x5D 0xFC SLT 0xEB 0x2A DUP15 CALLVALUE 0xE6 SHL 0xD EQ DUP16 DUP14 DUP15 PREVRANDAO 0xDA 0xD1 PUSH28 0x13364736F6C63430008120033000000000000000000000000000000 "
		},
		"gasEstimates": {
			"creation": {
				"codeDepositCost": "98800",
				"executionCost": "22253",
				"totalCost": "121053"
			},
			"external": {
				"InitialVal()": "2407",
				"externalModifier()": "infinite",
				"inheritanceTest()": "infinite",
				"updatedValue()": "2459"
			}
		},
		"methodIdentifiers": {
			"InitialVal()": "30758132",
			"externalModifier()": "cbe5356c",
			"inheritanceTest()": "fe68eeca",
			"updatedValue()": "e911018b"
		}
	},
	"abi": [
		{
			"inputs": [],
			"name": "InitialVal",
			"outputs": [
				{
					"internalType": "uint256",
					"name": "",
					"type": "uint256"
				}
			],
			"stateMutability": "view",
			"type": "function"
		},
		{
			"inputs": [],
			"name": "externalModifier",
			"outputs": [
				{
					"internalType": "uint256",
					"name": "",
					"type": "uint256"
				}
			],
			"stateMutability": "nonpayable",
			"type": "function"
		},
		{
			"inputs": [],
			"name": "inheritanceTest",
			"outputs": [
				{
					"internalType": "uint256",
					"name": "",
					"type": "uint256"
				}
			],
			"stateMutability": "view",
			"type": "function"
		},
		{
			"inputs": [],
			"name": "updatedValue",
			"outputs": [
				{
					"internalType": "uint256",
					"name": "",
					"type": "uint256"
				}
			],
			"stateMutability": "view",
			"type": "function"
		}
	]
}